:100000000C9411010C9439010C9439010C943901B0
:100010000C9439010C9439010C9439010C94390178
:100020000C9439010C9439010C9439010C94390168
:100030000C9439010C9439010C9439010C94390158
:100040000C94B1080C9439010C9421090C94FB0810
:100050000C9439010C9439010C9439010C94390138
:100060000C9439010C9439014E414E494E49545972
:10007000494E46CDCCCC3D0AD7233C17B7D1387773
:10008000CC2B329595E6241FB14F0A000020410089
:1000900000C84200401C4620BCBE4CCA1B0E5AAED3
:1000A000C59D746E616E006E616E006576656E74DE
:1000B0002C6D732C74656D705F632C6164632C64AC
:1000C00074656D705F635F7065725F732C736574C8
:1000D000706F696E745F632C6D6F64652C68656109
:1000E0007465725F70776D2C68656174696E672CDA
:1000F0006865617465725F6C6F636B6F75742C708B
:10010000756D705F656E61626C65642C70756D7085
:100110005F616C6C6F7765642C70756D705F6F6E6E
:100120002C6D6F746F725F70776D2C6D6F746F7262
:100130005F6F6E5F6D732C6D6F746F725F70657241
:10014000696F645F6D732C74656D705F6265666F57
:1001500072655F70756D705F632C6D696E5F74653D
:100160006D705F61667465725F70756D705F632C32
:100170006C6173745F70756D705F64726F705F63D4
:100180002C7265636F766572795F74696D655F73F4
:100190002C6D616E75616C5F6B696C6C2C68617243
:1001A000645F6B696C6C2C757074696D655F73004E
:1001B000534554504F494E545F52454A4543544568
:1001C0004400534554504F494E545F4F4B2000005C
:1001D0000000080002010000030407000000000006
:1001E00000000000000000250028002B0000000097
:1001F00000240027002A0004040404040404040268
:1002000002020202020303030303030102040810B3
:100210002040800102040810200102040810200080
:10022000721111241FBECFEFD8E0DEBFCDBF22E098
:10023000A0E5B1E001C01D92A439B207E1F711E0D9
:10024000A0E0B1E0E2E1FCE202C005900D92A03531
:10025000B107D9F711E0C1E1D1E004C02197FE0157
:100260000E94D414C031D107C9F70E9453090C94DD
:1002700007160C94000090E0FC01E55FFD4F24910F
:1002800089509E4FFC018491882399F090E0880F5B
:10029000991FFC01E351FE4FA591B491FC01ED5172
:1002A000FE4F859194918FB7F894EC91E22BEC93EB
:1002B0008FBF089590E0FC01E153FE4F2491FC01B3
:1002C000E55FFD4F3491FC01E950FE4FE491EE23D0
:1002D000C9F0222339F0233001F1A8F4213019F1BB
:1002E000223029F1F0E0EE0FFF1FED51FE4FA591F6
:1002F000B4918FB7F894EC91611126C030953E23EC
:100300003C938FBF08952730A9F02830C9F02430DE
:1003100049F7809180008F7D03C0809180008F77A6
:1003200080938000DFCF84B58F7784BDDBCF84B529
:100330008F7DFBCF8091B0008F778093B000D2CFBC
:100340008091B0008F7DF9CF3E2BDACF1F93CF93F2
:10035000DF93182FEB010E943B01209739F460E0F6
:10036000812FDF91CF911F910C945A01CF3FD1057E
:1003700011F461E0F5CFE12FF0E0E153FE4FE4919D
:10038000E33031F140F4E130B1F0E230E1F0C03877
:10039000D1057CF7E4CFE73029F1E83059F1E430BA
:1003A000B1F780918000806280938000D0938B00B1
:1003B000C0938A0004C084B5806884BDC7BDDF9146
:1003C000CF911F91089584B5806284BDC8BDF7CFD9
:1003D00080918000806880938000D0938900C093D2
:1003E0008800EDCF8091B00080688093B000C0930A
:1003F000B300E5CF8091B00080628093B000C093DD
:10040000B400DDCF70E060E089E00C94A6013FB756
:10041000F8948091F1019091F201A091F301B091D3
:10042000F40126B5A89B05C02F3F19F00196A11D28
:10043000B11D3FBFBA2FA92F982F8827BC01CD012E
:10044000620F711D811D911D42E0660F771F881F8D
:10045000991F4A95D1F708958F929F92AF92BF92BC
:10046000CF92DF92EF92FF920E9407024B015C0154
:1004700088EEC82E83E0D82EE12CF12C0E940702D2
:10048000681979098A099B09683E734081059105BD
:10049000A8F321E0C21AD108E108F10888EE880E1D
:1004A00083E0981EA11CB11CC114D104E104F10425
:1004B00029F7FF90EF90DF90CF90BF90AF909F9083
:1004C0008F900895AF92BF92CF92DF92EF92FF92FA
:1004D0000F931F93CF93DF936C017B018B01040F6C
:1004E000151FEB015E01AE18BF08C017D10759F008
:1004F0006991D601ED91FC910190F081E02DC6014A
:100500000995892B79F7C501DF91CF911F910F9143
:10051000FF90EF90DF90CF90BF90AF900895FC01D7
:10052000538D448D252F30E0842F90E0821B930B58
:10053000541710F0CF96089501970895FC01918DFE
:10054000828D981761F0A28DAE0FBF2FB11D5D9601
:100550008C91928D9F5F9F73928F90E008958FEFA3
:100560009FEF0895FC01918D828D981731F0828D57
:10057000E80FF11D858D90E008958FEF9FEF0895AE
:10058000FC01918D228D892F90E0805C9F4F821B12
:1005900091098F739927089585EF91E00E94C00219
:1005A00021E0892B09F420E0822F089580E090E07B
:1005B000892B29F00E94CC0281110C94000008952F
:1005C000FC01A48DA80FB92FB11DA35ABF4F2C91C8
:1005D000848D90E001968F739927848FA689B789BF
:1005E0002C93A089B1898C91837080648C93938DB6
:1005F000848D981306C00288F389E02D80818F7D59
:1006000080830895EF92FF920F931F93CF93DF9310
:10061000EC0181E0888F9B8D8C8D98131AC0E8893E
:10062000F989808185FF15C09FB7F894EE89FF890D
:100630006083E889F98980818370806480839FBFAB
:1006400081E090E0DF91CF911F910F91FF90EF90AB
:100650000895F62E0B8D10E00F5F1F4F0F731127BB
:10066000E02E8C8D8E110CC00FB607FCFACFE889F6
:10067000F989808185FFF5CFCE010E94E002F1CF9C
:10068000EB8DEC0FFD2FF11DE35AFF4FF0829FB76A
:10069000F8940B8FEA89FB8980818062CFCF0F931A
:1006A0001F93CF93DF938C01D0E0C0E0F801EC0FF3
:1006B000FD1F6491662341F085EF91E00E940203E3
:1006C000892B11F02196F2CFCE01DF91CF911F91AE
:1006D0000F910895682F85EF91E00C940203CF935A
:1006E000DF93EC01888D8823B9F0AA89BB89E8895A
:1006F000F9898C9185FD03C0808186FD0DC00FB600
:1007000007FCF7CF8C9185FFF2CF808185FFEDCF7D
:10071000CE010E94E002E9CFDF91CF9108953F9290
:100720004F925F926F927F928F929F92AF92BF9201
:10073000CF92DF92EF92FF920F931F93CF93DF93AD
:10074000CDB7DEB72B970FB6F894DEBF0FBECDBF87
:100750006D837E838F8398875A8749876090B10124
:10076000662009F4A3C130909801332009F49EC19A
:1007700027EA31E03A8329830DE911E0712CC12C7D
:10078000D12C760146015701A981BA816D917D91E5
:10079000BA83A983072E000C880B990B0E94411382
:1007A00020E030E048EC52E40E9447159B01AC0188
:1007B000C501B4010E94DB144B015C01F801619199
:1007C00071918F01072E000C880B990B0E94411329
:1007D00020E030E048EC52E40E9447159B01AC0158
:1007E000C701B6010E94DB146B017C017394671092
:1007F000CBCF04E811E01B8619821A821B821C826F
:10080000D8016D917D918D919D918D010E943F1335
:1008100020E030E04AE754E40E9447159B01AC0118
:1008200069817A818B819C810E94DB1469837A8340
:100830008B839C83BB85BF5FBB873B12E1CF672D5A
:1008400070E090E080E00E9441132B013C01AC017C
:100850009B01C501B4010E9447154B015C01A30136
:100860009201C701B6010E9447159B01AC01C50169
:10087000B4010E94DA1420E030E040E05FE30E941F
:10088000A0136B017C012DEC3CEC4CEC5DE30E9471
:10089000EF1518160CF00AC1632D70E090E080E0AF
:1008A0000E9441139B01AC0169817A818B819C81FB
:1008B0000E9447152B013C0120E030E040E85FE357
:1008C0000E94EF1518160CF0F1C02BED3FE049E443
:1008D00050E4C701B6010E94A0139B01AC0160E087
:1008E00070E088EC93E40E9447152AE939E949E170
:1008F0005FE30E94A0136B017C012DEC3CEC4CECFF
:100900005DE30E943A1387FDACC020E030E040EA8E
:1009100052E4C701B6010E94EF1518160CF4A9C0E5
:10092000C0920C01D0920D01E0920E01F0920F01E5
:10093000A7019601C701B6010E94DB14A301920131
:100940000E9447154B015C0120E030E0A9010E94A4
:100950003A1387FD95C020E030E040EC50E4C5013B
:10096000B4010E94EF1518160CF48EC08092080195
:1009700090920901A0920A01B0920B01A701960181
:10098000C301B2010E94A01320E030E040E05EE32A
:100990000E94A0136B017C0120E030E0A9010E94BD
:1009A0003A1387FD78C020E030E04AEF53E4C701F6
:1009B000B6010E94EF1518160CF471C0C092040124
:1009C000D0920501E0920601F09207018CEE9CE2C4
:1009D00090931301809312011092CF011092D001D5
:1009E0001092D1011092D201E985FA85BF01FF0F63
:1009F000880B990B0E94411320E030E048EC52E450
:100A00000E94471560937C0170937D0180937E0165
:100A100090937F018D819E81AF81B8858093800105
:100A200090938101A0938201B093830182E080932F
:100A3000BF012B960FB6F894DEBF0FBECDBFDF917E
:100A4000CF911F910F91FF90EF90DF90CF90BF90CB
:100A5000AF909F908F907F906F905F904F903F905E
:100A600008953DECC32E3CECD32EED2C3DE3F32E4C
:100A700057CFC12CD12C20EAE22E22E4F22E50CF07
:100A8000812C912C540172CF812C912C90ECA92EA9
:100A900090E4B92E6BCFC12CD12C76018FCFC12C15
:100AA000D12C8AEFE82E83E4F82E88CF8BE794E1EF
:100AB000AEEDB0E480930C0190930D01A0930E0174
:100AC000B0930F018DEC9CECACECBDE3809308017E
:100AD00090930901A0930A01B0930B018CE59FE864
:100AE000A1EFB2E48093040190930501A093060165
:100AF000B09307016BCF70E060E086E00E94A60132
:100B000086E00E943B0160E086E00E945A0110925C
:100B1000BA010895FC0101900020E9F73197AF0177
:100B2000481B590BBC0185EF91E00C9462028F9237
:100B30009F92AF92BF920F931F93CF93DF93CDB746
:100B4000DEB7A1970FB6F894DEBF0FBECDBF19A2D6
:100B5000423008F44AE08E010F5D1F4F842E912C25
:100B6000B12CA12CA50194010E94B214E62FB90169
:100B7000CA01EA30F4F4E05DD801EE938D01232B35
:100B8000242B252B79F790E080E0109719F0CD0108
:100B90000E948A05A1960FB6F894DEBF0FBECDBFA6
:100BA000DF91CF911F910F91BF90AF909F908F9049
:100BB0000895E95CE1CF4F925F926F927F928F929E
:100BC0009F92AF92BF92CF92DF92EF92FF920F93DC
:100BD0001F93CF936B017C01742EAC019B010E948B
:100BE000F415882399F08BE291E0CF911F910F913A
:100BF000FF90EF90DF90CF90BF90AF909F908F903D
:100C00007F906F905F904F900C948A05460157013A
:100C1000E894B7F82FEF3FEF4FE75FE7C501B40166
:100C20000E94F41581110DC02FEF3FEF4FE75FE7F2
:100C3000C501B4010E943A1318161CF48FE291E02A
:100C4000D4CF2FEF3FEF4FE75FE4C701B6010E941B
:100C5000EF1518161CF483E391E0C7CF2FEF3FEF99
:100C60004FE75FECC701B6010E943A1387FDF3CF4F
:100C700020E030E0A901C701B6010E943A1310E05C
:100C800000E087FF08C08DE20E946A038C01F7FA3A
:100C9000F094F7F8F094C0E060E070E080E09FE34B
:100CA0007C1641F020E030E040E251E40E9447151C
:100CB000CF5FF6CFA70196010E94DB142B013C0108
:100CC0000E94C0154B015C014AE00E9497057C011F
:100CD000E00EF11ECC23B1F1C501B4010E943F1317
:100CE0009B01AC01C301B2010E94DA144B015C010B
:100CF0008EE20E946A03E80EF91EC15018F120E04E
:100D000030E040E251E4C501B4010E94A0132B0180
:100D10003C010E94C0154B01B12CA12C4AE0C50139
:100D2000B4010E949705E80EF91EC501B4010E94A6
:100D30003F139B01AC01C301B2010E94DA144B01C5
:100D40005C01DBCFC701CF911F910F91FF90EF9016
:100D5000DF90CF90BF90AF909F908F907F906F90DB
:100D60005F904F900895BC01990F880B990B0E94DA
:100D700041132AE037ED43E25CE30E94A01342E016
:100D80000C94DB05811520E8920721F483EA90E0BA
:100D90000C944F030C94B306BC01990F880B990B6C
:100DA0004AE00C949705AF92BF92CF92DF92EF92F8
:100DB000FF920F931F93CF93DF936A017B01590139
:100DC0002091020130910301C0E0D0E8211540E8F4
:100DD000340761F0C0910001D0910101C11550E8C4
:100DE000D50721F0A9014C1B5D0BEA01682F70E0CB
:100DF00090E080E04AE00E9497058CE20E946A033E
:100E00004AE0C701B6010E9497058CE20E946A037E
:100E1000C8010E94B3068CE20E946A03B50190E00B
:100E200080E04AE00E9497058CE20E946A0360918C
:100E3000DA017091DB018091DC019091DD0144E0E9
:100E40000E94DB058CE20E946A038091120190915E
:100E500013010E94B3068CE20E946A036091BF01F5
:100E600070E090E080E04AE00E9497058CE20E94EA
:100E70006A036091BA0170E090E080E04AE00E946D
:100E800097058CE20E946A038091D40190E00E9451
:100E9000CC068CE20E946A038091D30190E00E940C
:100EA000CC068CE20E946A038091E50190E00E94EA
:100EB000CC068CE20E946A038091C90190E00E94F6
:100EC000CC068CE20E946A038091D90190E00E94D6
:100ED000CC068CE20E946A036091E60170E090E02B
:100EE00080E04AE00E9497058CE20E946A034AE093
:100EF00068EE73E080E090E00E9497058CE20E942B
:100F00006A034AE060E375E780E090E00E9497059D
:100F10008CE20E946A0380910201909103010E9479
:100F2000C2068CE20E946A03809100019091010147
:100F30000E94C2068CE20E946A03CE010E94C20691
:100F40008CE20E946A0380915801882309F44FC003
:100F50006091540170915501809156019091570113
:100F60000E943F1320E030E04AE754E40E94471516
:100F700042E00E94DB058CE20E946A038091CA0174
:100F800090E00E94CC068CE20E946A038091C0012E
:100F900090E00E94CC068CE20E946A038091E701F7
:100FA0009091E801A091E901B091EA01A7019601B1
:100FB000281B390B4A0B5B0BCA01B90128EE33E041
:100FC00040E050E00E94B214CA01B9014AE00E9418
:100FD000970587E391E0DF91CF911F910F91FF90EB
:100FE000EF90DF90CF90BF90AF900C948A0587EA86
:100FF00090E00E944F03BFCFAF92BF92CF92DF929B
:10100000EF92FF920F931F93CF93DF936B017C01BD
:101010005A01E9018091D9018823F9F080915A01A0
:1010200081111BC030930301209302013093010111
:101030002093000110925401109255011092560114
:1010400010925701109258011092590189019A018A
:10105000B701A60181E00E94D3068091D9018823BF
:1010600009F45CC08091000190910101C817D90773
:1010700024F4D0930101C093000180915901882389
:10108000F1F18091000190910101C817D90724F472
:10109000D0930101C09300018091580181112FC0AC
:1010A0008091020190910301811520E8920739F1A6
:1010B000C817D90724F18091500190915101A09156
:1010C0005201B0915301A7019601281B390B4A0B1D
:1010D0005B0BDA01C9018093540190935501A093F1
:1010E0005601B093570181E0809358011092590145
:1010F0008E019501B701A60183E00E94D30680917D
:10110000D90180935A01DF91CF911F910F91FF90E8
:10111000EF90DF90CF90BF90AF90089580915A01EB
:10112000882309F4AACFC0925001D0925101E092D5
:101130005201F092530181E08093590180910001A6
:1011400090910101C817D90724F4D0930101C093ED
:1011500000018E019501B701A60182E00E94D3062D
:101160008CCF1F920F920FB60F9211242F933F93A3
:101170008F939F93AF93BF938091ED019091EE0178
:10118000A091EF01B091F0013091EC0123E0230F29
:101190002D3758F50196A11DB11D2093EC018093C8
:1011A000ED019093EE01A093EF01B093F0018091D7
:1011B000F1019091F201A091F301B091F401019637
:1011C000A11DB11D8093F1019093F201A093F30151
:1011D000B093F401BF91AF919F918F913F912F9167
:1011E0000F900FBE0F901F90189526E8230F0296C0
:1011F000A11DB11DD2CF1F920F920FB60F921124D5
:101200002F933F934F935F936F937F938F939F930E
:10121000AF93BF93EF93FF9385EF91E00E94E002BD
:10122000FF91EF91BF91AF919F918F917F916F91BE
:101230005F914F913F912F910F900FBE0F901F9094
:1012400018951F920F920FB60F9211242F938F9320
:101250009F93EF93FF93E0910502F0910602808146
:10126000E0910B02F0910C0282FD1BC090818091F5
:101270000E028F5F8F7320910F02821741F0E09171
:101280000E02F0E0EB50FE4F958F80930E02FF911F
:10129000EF919F918F912F910F900FBE0F901F9004
:1012A00018958081F4CFCF93DF93CDB7DEB76A97DF
:1012B0000FB6F894DEBF0FBECDBF789484B58260C0
:1012C00084BD84B5816084BD85B5826085BD85B5EA
:1012D000816085BD80916E00816080936E00109268
:1012E00081008091810082608093810080918100E3
:1012F0008160809381008091800081608093800074
:101300008091B10084608093B1008091B0008160D1
:101310008093B00080917A00846080937A008091FD
:101320007A00826080937A0080917A008160809355
:101330007A0080917A00806880937A001092C100D0
:1013400086E00E943B0189E00E943B010E947B05F0
:101350000E94020221E02093E501E0910502F09154
:10136000060282E08083E0910102F0910202108285
:10137000E0910302F091040280E1808310920D025B
:10138000E0910902F0910A0286E08083E091070271
:10139000F0910802808180618083E0910702F091E2
:1013A0000802808188608083E0910702F091080242
:1013B000808180688083E0910702F091080280813B
:1013C0008F7D80833FB7F8948091ED019091EE017D
:1013D000A091EF01B091F0013FBF8093C1019093C4
:1013E000C201A093C301B093C4018093BB01909349
:1013F000BC01A093BD01B093BE018093E70190931F
:10140000E801A093E901B093EA011092EB01109278
:10141000C9011092C0011092E4011092CA01109209
:101420007B011092D9011092E60110925A0110929C
:101430005901109258011092E0011092E1011092AE
:10144000E2011092E3011092DF011092DE0110928E
:10145000BF01209318011092B101109298011092CF
:10146000990110929A0110929B0110929C0120E028
:1014700030E830931701209316012FEF3FE73093A8
:101480001501209314018093B2019093B301A093AE
:10149000B401B093B5018CEE9CE29093130180935C
:1014A00012011092CF011092D0011092D10110922E
:1014B000D2011092D3011092D4018BEA90E00E94E5
:1014C0004F0387E391E00E948A058FB7F894C0909C
:1014D000ED01D090EE01E090EF01F090F0018FBFB0
:1014E00085EF91E00E94C002181619060CF0DCC0CE
:1014F00085EF91E00E949E028D3091F3E0917B0197
:101500008A3009F0C5C0F0E0E55AFE4F108244E091
:1015100050E06AE371E08BE591E00E94F915892BB8
:1015200031F58FE591E00E94A31121E0009709F4C5
:1015300020E02093CA01892BB9F00E947B050E940C
:1015400002021092D40121E02093D3011092CF0126
:101550001092D0011092D1011092D2011092C901C3
:101560001092D9011092E60110927B01B9CF46E0AA
:1015700050E06FE371E08BE591E00E94F915892B53
:1015800079F481E691E00E94A31121E0009709F42B
:1015900020E02093E501892B39F70E940202E0CF79
:1015A00048E050E066E471E08BE591E00E94F915B7
:1015B000892BD1F683E691E00E949F114B015C01DB
:1015C00020E030E048EC52E40E94A0132B013C01E3
:1015D00020E030E0A901C501B4010E94EF1520E030
:1015E00030E040E05FE387FF04C020E030E040E00F
:1015F0005FEBC301B2010E94DB140E94B9154B01DD
:10160000CB01805E9E428335934048F080EB91E0B1
:101610000E944F0387E391E00E948A05A5CF909234
:10162000110180921001809112019091130188168E
:1016300099061CF5909213018092120153E0509389
:10164000BF011092CF011092D0011092D1011092DF
:10165000D20182EC91E00E944F03B401990C880BF7
:10166000990B0E94411320E030E048EC52E40E94C4
:10167000471542E00E94DB05CDCF4091BF014330CA
:1016800041F7881599052CF782E08093BF01E1CFDF
:10169000EF3108F069CF91E09E0F90937B01F0E06D
:1016A000E55AFE4F80831CCF8091EB01811120C051
:1016B0008091E7019091E801A091E901B091EA01E0
:1016C000A7019601281B390B4A0B5B0BDA01C901F4
:1016D00081159047A949B44158F041E04093EB018E
:1016E0000E947B050E9402021092E6011092E50121
:1016F00028E080E090E0DC0150E450937C003091E1
:101700007A00306430937A0030917A0036FDFCCF55
:101710004091780050917900052E000C660B770BF4
:10172000840F951FA61FB71F215031F79C01AD01F3
:1017300063E056954795379527956A95D1F72983A4
:101740003A834B835C833091E4013D87332351F02E
:1017500041E0498789819A810B978A3E934050F4F2
:10176000198608C081E0898789819A810697843F1C
:101770009340B0F3B985B093E401E981FA81BF01E8
:1017800090E080E00E943F1324E237E94FE35EEBF4
:101790000E94A01322E538EF47E253E40E94DB14D5
:1017A0004B015C0120E030E04CE553E40E94EF1572
:1017B00018160CF491C020E030E040EA51ECC5016D
:1017C000B4010E943A1387FD8EC020E030E048EC5F
:1017D00052E4C501B4010E94A0132B013C0120E09A
:1017E00030E0A901C501B4010E94EF1520E030E00E
:1017F00040E05FE387FF04C020E030E040E05FEBC3
:10180000C301B2010E94DB140E94B9152B011B0118
:101810008090E0019090E101A090E201B090E3019E
:1018200081149104A104B10409F064C0C092E001E4
:10183000D092E101E092E201F092E3017093DF01C6
:101840006093DE011092DA011092DB011092DC014C
:101850001092DD018091EB01882309F493C010926E
:10186000D901920149815A81C701B6010E94FC0742
:101870008091D5019091D601A091D701B091D80166
:10188000A7019601281B390B4A0B5B0BDA01C90132
:10189000893E9340A105B10580F0C092D501D09258
:1018A000D601E092D701F092D801820129813A81D4
:1018B000B701A60180E00E94D3060E942C0240E0FE
:1018C00050E0452B09F401CE0E94CC02882309F494
:1018D000FCCD0E940000F9CD812C912C5CE5A52E59
:1018E00053E4B52E72CF812C912C40EAA42E41EC0A
:1018F000B42E6BCF8C149D04AE04BF0409F4AACFA0
:101900008091DE019091DF01B201681B790B072EF7
:10191000000C880B990B0E9441132AE037ED43E23B
:101920005CE30E94A0136D837E838F839887C70139
:10193000B601681979098A099B090E943F1320E0C2
:1019400030E04AE754E40E9447159B01AC016D81E9
:101950007E818F8198850E9447156093DA0170938C
:10196000DB018093DC019093DD01C092E001D09215
:10197000E101E092E201F092E3015092DF01409236
:10198000DE0168CF4985442309F446C01092D40192
:1019900051E05093D3011092CF011092D0011092D8
:1019A000D1011092D2010E947B050E940202109286
:1019B000D9011092E6018D85811108C0820129812B
:1019C0003A81B701A60185E00E94D30692014981C0
:1019D0005A81C701B6010E94FC078091CB0190910A
:1019E000CC01A091CD01B091CE01A7019601281B99
:1019F000390B4A0B5B0BDA01C901893E9340A10503
:101A0000B10508F45ACFC092CB01D092CC01E0923C
:101A1000CD01F092CE0149CF4091CA014D834423BC
:101A2000E9F11092D40151E05093D3011092CF010B
:101A30001092D0011092D1011092D2010E947B0528
:101A40000E9402021092C9011092D9011092E6017F
:101A5000920149815A81C701B6010E94FC07809119
:101A6000C5019091C601A091C701B091C801A7011D
:101A70009601281B390B4A0B5B0BDA01C901893E21
:101A80009340A105B10508F418CFC092C501D092CA
:101A9000C601E092C701F092C80107CF8091C10151
:101AA0009091C201A091C301B091C401A701960118
:101AB000281B390B4A0B5B0BDA01C9018C3B9240A6
:101AC000A105B10508F4ABC0C092C101D092C2011A
:101AD000E092C301F092C4014091C001498781E0C6
:101AE00058EC251652E335060CF480E08093C001D3
:101AF00088EC281682E33806F4F01092D40191E0C5
:101B00009093D3011092CF011092D0011092D10185
:101B10001092D2010E9402021092E601A985A11141
:101B200008C0820129813A81B701A60184E00E94A0
:101B3000D30660E06CC0B091BF01BD878B2F82508F
:101B4000823008F0D4C28090800190908101A090F2
:101B50008201B0908301B201052C000C880B990B17
:101B60000E94411320E030E048EC52E40E94471507
:101B700069877A878B879C8781149104A104B104BB
:101B800009F0F7C0C0928001D0928101E0928201F9
:101B9000F09283019B01AC0120937C0130937D0185
:101BA00040937E0150937F0160E0211492E3390657
:101BB00044F570E08091E5018823F1F08091BB014C
:101BC0009091BC01A091BD01B091BE01A701960109
:101BD000281B390B4A0B5B0BDA01C90189019A01F9
:101BE000085A1146210931090838134121053105E8
:101BF00008F06FC36E5E7F4F693C710514F068ECAE
:101C000070E081E0611101C080E08093D401809197
:101C1000D401882311F061112EC30E947B058091AD
:101C2000C9019201245D3043243F314008F435C39B
:101C3000982F92012D5030432B3B324008F49D8366
:101C4000BD81B093C90181110AC0BB2341F0C0928C
:101C5000BB01D092BC01E092BD01F092BE01809127
:101C6000E501882309F41BC3ED81EE2309F417C3B2
:101C70008091BB019091BC01A091BD01B091BE01CA
:101C8000A7019601281B390B4A0B5B0BDA01C9012E
:101C900080339547A105B10540F0C092BB01D092B9
:101CA000BC01E092BD01F092BE018091BB01909118
:101CB000BC01A091BD01B091BE01A7019601281BF6
:101CC000390B4A0B5B0BDA01C90121E0883E33E096
:101CD0009307A105B10508F020E02093D901883EC3
:101CE00043E09407A105B10508F0DBC264EB8A3F2D
:101CF0009105A105B10508F06BE96093E60170E07C
:101D000089E00E94A601920149815A81C701B6016A
:101D10000E94FC078091BA01811104C060E086E056
:101D20000E945A018091B6019091B701A091B8012B
:101D3000B091B901A7019601281B390B4A0B5B0B27
:101D4000DA01C901893E9340A105B10508F4B7CD78
:101D5000C092B601D092B701E092B801F092B901F9
:101D6000820129813A81B701A60180E00E94D30651
:101D7000A6CD32E3231633060CF478C041E040933D
:101D8000D301C701B601681979098A099B090E9424
:101D90003F1320E030E04AE754E40E9447154B012E
:101DA0005C0120E030E0A9010E943A1318160CF003
:101DB0007DC28D85823009F083C220E030E040E7AB
:101DC00051E4C501B4010E94A01320E030E040E0DE
:101DD0005FE30E94DB140E94B9151616170614F073
:101DE00061E070E080911201909113012091100147
:101DF00030911101821793070CF044C0680F791FCE
:101E00007093130160931201621773073CF03093D3
:101E100013012093120193E09093BF018091D301AD
:101E2000811107C0609112017091130126163706C7
:101E30008CF11092CF011092D0011092D10110922A
:101E4000D20129853A854B855C8520937C013093AE
:101E50007D0140937E0150937F01C0928001D0921A
:101E60008101E0928201F09283019ECE5BE625160D
:101E700051E335060CF085CF1092D30182CF6BE091
:101E800070E0B0CF3093130120931201A3E0A09330
:101E9000BF01C4CF072E000C880B990B0E94411381
:101EA00020E030E048EC52E40E94471529853A854D
:101EB0004B855C850E94DA146D877E878F87988BAF
:101EC00020917C0130917D0140917E0150917F01F4
:101ED00069857A858B859C850E94DA14A501940119
:101EE0000E9447156D8B7E8B8F8B988F3091CF0121
:101EF000398B4091D0014A8B5091D1015B8B8091FD
:101F0000D2018C8B8091E5018823B1F08091BB01D7
:101F10009091BC01A091BD01B091BE01A7019601B5
:101F2000281B390B4A0B5B0BDA01C901883E934031
:101F3000A105B10508F4AAC02D853E854F855889B5
:101F4000C501B4010E94A01329893A894B895C8993
:101F50000E94DB148B018A8F998F20E030E048ECDF
:101F600053EC0E943A1387FD98C020E030E048EC23
:101F700053E4B8018A8D998D0E94EF15181634F438
:101F800000E010E048EC4A8F53E4598F20910C0197
:101F900030910D0140910E0150910F016D857E85AC
:101FA0008F8598890E94A0134B015C012091080144
:101FB0003091090140910A0150910B01B8018A8DBD
:101FC000998D0E94A0139B01AC01C501B4010E9430
:101FD000DB144B015C01209104013091050140911B
:101FE0000601509107016D897E898F89988D0E9425
:101FF000A0139B01AC01C501B4010E94DA144B018E
:102000005C0120E030E048E453E40E94EF1520E05A
:1020100030E0A90118160CF047C06D857E858F85CC
:1020200098890E94EF1518160CF453C0812C912C3E
:1020300038E4A32E33E4B32EC801AA8DB98D809362
:10204000CF019093D001A093D101B093D2018985A3
:102050009A85AB85BC8580937C0190937D01A0938C
:102060007E01B0937F01C0928001D0928101E09205
:102070008201F092830120E030E040E05FE3C5019F
:10208000B4010E94DB140E94C0158FCD09891A8902
:102090008B898A8F9C89998F79CF00E010E0A8EC1A
:1020A000AA8FB3ECB98F72CFC501B4010E943A1365
:1020B00087FFC2CF20E030E0A9016D857E858F8546
:1020C00098890E943A1387FD0BC0812C912C5401F2
:1020D000B3CF09891A89EB89EA8FFC89F98FA6CFDA
:1020E00009891A892B892A8F3C89398FEECF8091F3
:1020F000B2019091B301A091B401B091B501A701D3
:102100009601281B390B4A0B5B0BDA01C90181349C
:102110009747AB41B10530F0A201C701B6010E945B
:102120008F0322C04D85411121C058EF25165AE278
:1021300035060CF49EC081E08093BF019CEE291609
:102140009CE239060CF080E0809318015092170150
:10215000409216015092150140921401ACEE2A16DD
:10216000ACE23A060CF485C060E04BCD80911801DA
:102170008823C1F080911601909117018215930573
:1021800024F45092170140921601B4E62B16BDE2DA
:102190003B060CF46EC0109218015092150140924B
:1021A0001401E2CF8091140190911501281639068F
:1021B00024F45092150140921401E5E72E16ECE24A
:1021C0003E0694F64091B1014530C8F4842F90E06A
:1021D000880F991FFC01E955FE4F2091160130919F
:1021E00017013183208383569E4F20911401309133
:1021F0001501DC012D933C934F5F4093B101809119
:10220000990190919A01A0919B01B0919C01009736
:10221000A105B105D1F0E0919801E530B0F421E0DD
:102220002E0F2093980124E0E29FF0011124EC5737
:10223000FE4FA7019601281B390B4A0B5B0BDA01F5
:10224000C90180839183A283B383C0929901D09204
:102250009A01E0929B01F0929C018091B10185303E
:1022600008F05ACF31E03093180150921701409294
:10227000160168ECC6CC6987693C10F048EC4987C8
:1022800086E00E943B015985652F70E086E00E9440
:10229000A60189858093BA01C2CC91E0CACC109284
:1022A000D9011092E6010E9402022DCD5D8583E3E3
:1022B000882E982CA82C8FE3B82E523009F4DFCD4D
:1022C000809110019091110190931301809312015C
:1022D000A5CD883E9340A105B10508F08DCC645E84
:1022E0007F4F8ACCE5EFF1E01382128288EE93E013
:1022F000A0E0B0E084839583A683B7838DE191E06D
:102300009183808385EC90E09587848784EC90E0CE
:102310009787868780EC90E0918B808B81EC90E0B2
:10232000938B828B82EC90E0958B848B86EC90E093
:10233000978B868B118E128E138E148E08956627BE
:1023400077270C94C911FC0188279927E8942191DB
:102350002032E9F3293010F02E30C8F32B3241F04F
:102360002D3239F4689404C00E94C111820F911D6E
:10237000219120532A30C0F31EF4909581959F4FF0
:1023800008957AE0979F902D879F802D910D1124BD
:102390000895B0E0A0E0EFECF1E10C9472145C0160
:1023A0007B016115710519F0DB018D939C9385010B
:1023B0000F5F1F4FF501D0818D2F90E00E94191300
:1023C0006C01892BB9F5DD32B9F50F5F1F4FD501CF
:1023D0001196DC91C1E05801F1E0AF1AB10843E079
:1023E00050E060E770E0C5010E942213892B69F577
:1023F000680182E0C80ED11C45E050E06BE670E059
:10240000C6010E942213892B21F4680197E0C90EAE
:10241000D11CE114F10419F0D701CD92DC9260E0F7
:1024200070E080E89FEFC111FFC060E070E080E8DD
:102430009FE7FAC05801BBCFDB3229F485010E5F5C
:102440001F4FF501D181C0E0C6CF43E050E068E600
:1024500070E0C5010E942213892BE9F0F80110E019
:1024600000E020E030E0A9015F01B0ED8B2E8D0E81
:1024700089E08815C8F19C2E689491F88C2F88709B
:10248000C2FF16C0811102C00F5F1F4F3196D501E8
:10249000DC91C92DE9CFE114F10429F00E5F1F4F43
:1024A000F7011183008360E070E080EC9FE7BCC01F
:1024B000882311F001501109A5E0B0E00E946114D9
:1024C0009B01AC01220F331F441F551F280D311DE6
:1024D000411D511D283999E93907490799E15907E3
:1024E000A8F2C6609C2ED2CFAEEF8A1206C0C3FD02
:1024F0003CC09C2E689493F8C9CFDF7DD534A9F5F4
:1025000080818D3239F4C061DF011296818162E0F1
:1025100070E006C0DF018B32C1F3119661E070E01C
:1025200080535D01A61AB70A8A30F8F4E0E8CE16A7
:10253000ECE0DE065CF4B601660F771F660F771FCE
:10254000C60ED71ECC0CDD1CC80ED11C5D01FFEFE2
:10255000AF1ABF0A8C9180538A30A8F1C4FF03C020
:10256000D194C194D1080C0D1D1DC1FF09C0E11407
:10257000F10431F081E0A81AB108D701AD92BC9204
:10258000CA01B9010E943F13C370C33009F49058C7
:102590004B015C0120E030E0A9010E943A1388233E
:1025A00009F440C0CFE9D0E017FF05C011950195AF
:1025B0001109C7E8D0E06E01B8E1CB1AD10880E27A
:1025C000E82EF12C0FC0D501B1CFFE012591359138
:1025D000459154910E191F09C501B4010E94A01321
:1025E0004B015C01D501C4010E151F0574F724973A
:1025F000F594E794CC16DD06A9F78A2F880F8B2F68
:10260000881F8F3F49F020E030E0A901C501B401E7
:102610000E943A13811106C082E290E090939302E7
:1026200080939202C501B401CDB7DEB7ECE00C9403
:102630008E1491110C940D14803219F0895085502C
:10264000C8F70895FB01DC014150504088F08D919E
:1026500081341CF08B350CF4805E659161341CF084
:102660006B350CF4605E861B611171F3990B089554
:10267000881BFCCF0E947C1308F481E00895E89445
:1026800009C097FB3EF490958095709561957F4FBA
:102690008F4F9F4F9923A9F0F92F96E9BB27939568
:1026A000F695879577956795B795F111F8CFFAF478
:1026B000BB0F11F460FF1BC06F5F7F4F8F4F9F4FA9
:1026C00016C0882311F096E911C0772321F09EE807
:1026D000872F762F05C0662371F096E8862F70E06D
:1026E00060E02AF09A95660F771F881FDAF7880F47
:1026F0009695879597F90895990F0008550FAA0B9D
:10270000E0E8FEEF16161706E807F907C0F0121604
:102710001306E407F50798F0621B730B840B950B07
:1027200039F40A2661F0232B242B252B21F408955C
:102730000A2609F4A140A6958FEF811D811D0895F9
:102740000E94B3130C9427140E94191438F00E94AD
:10275000201420F0952311F00C9410140C941614EE
:1027600011240C945B140E94381470F3959FC1F3EC
:10277000950F50E0551F629FF001729FBB27F00D2F
:10278000B11D639FAA27F00DB11DAA1F649F662784
:10279000B00DA11D661F829F2227B00DA11D621FD3
:1027A000739FB00DA11D621F839FA00D611D221F8D
:1027B000749F3327A00D611D231F849F600D211D71
:1027C000822F762F6A2F11249F5750409AF0F1F0F4
:1027D00088234AF0EE0FFF1FBB1F661F771F881F5D
:1027E00091505040A9F79E3F510580F00C94101471
:1027F0000C945B145F3FE4F3983ED4F38695779591
:102800006795B795F795E7959F5FC1F7FE2B880F02
:10281000911D9695879597F908959927882708958A
:1028200097F99F6780E870E060E008959FEF80EC83
:10283000089500240A941616170618060906089526
:1028400000240A9412161306140605060895092E8C
:102850000394000C11F4882352F0BB0F40F4BF2BFB
:1028600011F460FF04C06F5F7F4F8F4F9F4F08953B
:1028700057FD9058440F551F59F05F3F71F0479531
:10288000880F97FB991F61F09F3F79F08795089516
:10289000121613061406551FF2CF4695F1DF08C035
:1028A000161617061806991FF1CF86957105610552
:1028B00008940895E894BB2766277727CB0197F9FA
:1028C00008950E94A314A59F900DB49F900DA49FFE
:1028D000800D911D112408952F923F924F925F9287
:1028E0006F927F928F929F92AF92BF92CF92DF9220
:1028F000EF92FF920F931F93CF93DF93CDB7DEB785
:10290000CA1BDB0B0FB6F894DEBF0FBECDBF099418
:102910002A88398848885F846E847D848C849B846F
:10292000AA84B984C884DF80EE80FD800C811B817D
:10293000AA81B981CE0FD11D0FB6F894DEBF0FBEAC
:10294000CDBFED010895A29FB001B39FC001A39F29
:10295000700D811D1124911DB29F700D811D1124D8
:10296000911D0895A1E21A2EAA1BBB1BFD010DC0EB
:10297000AA1FBB1FEE1FFF1FA217B307E407F5072F
:1029800020F0A21BB30BE40BF50B661F771F881F0B
:10299000991F1A9469F760957095809590959B01A1
:1029A000AC01BD01CF010895EE0FFF1F0590F4911A
:1029B000E02D09945058BB27AA270E94F2140C94CA
:1029C00027140E94191438F00E94201420F039F4C2
:1029D0009F3F19F426F40C9416140EF4E095E7FBCF
:1029E0000C941014E92F0E94381458F3BA17620798
:1029F00073078407950720F079F4A6F50C945A1410
:102A00000EF4E0950B2EBA2FA02D0B01B901900109
:102A10000C01CA01A0011124FF27591B99F0593F4D
:102A200050F4503E68F11A16F040A22F232F342F95
:102A30004427585FF3CF469537952795A795F040E3
:102A40005395C9F77EF41F16BA0B620B730B840BF8
:102A5000BAF09150A1F0FF0FBB1F661F771F881FB0
:102A6000C2F70EC0BA0F621F731F841F48F4879508
:102A700077956795B795F7959E3F08F0B0CF9395FA
:102A8000880F08F09927EE0F9795879508950E9473
:102A90005B150C9427140E94201458F00E941914FE
:102AA00040F029F45F3F29F00C94101451110C945C
:102AB0005B140C9416140E94381468F39923B1F334
:102AC000552391F3951B550BBB27AA276217730754
:102AD000840738F09F5F5F4F220F331F441FAA1FE8
:102AE000A9F335D00E2E3AF0E0E832D091505040A4
:102AF000E695001CCAF72BD0FE2F29D0660F771F52
:102B0000881FBB1F261737074807AB07B0E809F037
:102B1000BB0B802DBF01FF2793585F4F3AF09E3FBC
:102B2000510578F00C9410140C945B145F3FE4F39F
:102B3000983ED4F3869577956795B795F7959F5FFF
:102B4000C9F7880F911D9695879597F90895E1E04B
:102B5000660F771F881FBB1F621773078407BA07AA
:102B600020F0621B730B840BBA0BEE1F88F7E09505
:102B700008950E94C0156894B1110C945B140895D7
:102B80000E94401488F09F5798F0B92F9927B751A9
:102B9000B0F0E1F0660F771F881F991F1AF0BA9501
:102BA000C9F714C0B13091F00E945A14B1E00895F1
:102BB0000C945A14672F782F8827B85F39F0B93FE3
:102BC000CCF3869577956795B395D9F73EF49095B4
:102BD0008095709561957F4F8F4F9F4F08950E940C
:102BE0007C1308F48FEF08950E947C13880B990BD7
:102BF0000895FB01DC014150504030F08D9101906F
:102C0000801919F40020B9F7881B990B0895F894DE
:022C1000FFCFF4
:102C1200008000805C8FF142CDCCCC3D7B14DE4045
:102C2200D430EC2CFF7F0080010000000002036220
:102C3200028F026F03C0029E02B2026E616E0069D1
:102C42006E66006F7666000D0A004B494C4C0053CD
:102C520045545F4F4E00534554504F494E54000067
:00000001FF
